:020000040000FA
:0600000083018A013C2986
:080008008801911C1F288501ED
:1000100071206F206D206B2021000C162000321003
:100020000C1E32140C080F39BC0032183C16A10B00
:100030001E282008A10021000C1220009110200091
:100040009119E42020002000921D2B282400110883
:1000500015162000921120001119252209002000F8
:100060005F30FF0020308400850149205030FF00C0
:10007000A03084004920850A4020850A4020850A56
:100080005030FF002030840049205030FF00A03065
:1000900084008001840AFF0B492808000030A30077
:1000A0002F30840085019320800031300402031931
:1000B0000800840AA30AF7330030A3002F3084001D
:1000C00085010008A4009B203130040203190800B8
:1000D000840AA30AF6332C3005322A300332283042
:1000E0000132263084001300000403190800013097
:1000F0008002840A0301803B08002B082C040800BE
:1001000029082A04080027082804080025082604CE
:10011000080005300332413001321930F700F70B87
:10012000FE330800A30023082300910015141308D0
:1001300020000800A300233084008501230000086C
:100140009100840A0008930015158B138B1BFD3357
:1001500055309600AA30960095149518FE33151167
:100160008B17200008002000A508031D0800203080
:100170008600013087000A30F000F100AA301E002E
:10018000F00BBF282A308600013087000830F000CD
:10019000AB301E00F00BC928F001F20124009417C7
:1001A00095013630950016141716971517179714E2
:1001B000171420002F082400920021009215911599
:1001C0002000911192110800A51791112400141D0F
:1001D0001629941AFE289612971FF1281108151651
:1001E0000800F00120307007860087010130873D4C
:1001F000010891001516F00A72140800161B142944
:1002000071087002030103180D2920307007860061
:1002100087010130873DF00A0108910071087002E2
:10022000031972101516080072100800941A1E297E
:1002300096121108F001F21415160800141A382944
:10024000971F1C29141C080015160830700203188B
:100250003A292A307007860087010130873DF00A6D
:1002600011088100721508307002031D08009616EF
:10027000F210080011080800210095179512951139
:100280001514951415152100F030990017309700BA
:1002900023008C018D01200021309800991320004B
:1002A0004F309C0020007D309B00200004308D00EA
:1002B000C0308C0021003F308C00D2308D002F20C8
:1002C000250093010A30930021009114111520009C
:1002D0006430A00064004E20B401B414B701B8012A
:1002E000B9012F0809183030890803193030AF00E0
:1002F0003108B6003008B5006400B7200B178B1723
:10030000AD016400B3209121132220002000321C93
:100310009029B41C90292030B8000330B900B410E3
:100320008129F2180800721D080072112A30840019
:10033000013085001200F80042307802031D0232BD
:10034000B410080048307802031D0332BA01BB0123
:10035000080052307802031D05321200B800120066
:10036000B900080050307802031D1B321200B300A0
:100370001200B4003A083302F9003B08343BFA009B
:10038000FA1F08323415B801B9017908B8027A08A1
:10039000B93B080034117908B8007A08B900B410E4
:1003A000080044307802031D0B322200FE300D0598
:1003B000801B01388D0020003411801B341508008B
:1003C0004D307802031D03321200B60008004E3093
:1003D0007802031D03321200B50008004F30780286
:1003E000031D0A3221000F300C04F8001200F0380F
:1003F00078058C002000080051307802031D0A3275
:1004000022000F300C04F8001200F03878058C0040
:10041000200008007A307802031D04321200AF0079
:100420005C200800080020007218080020308400BA
:100430000130850034308600003087000930F80034
:1004400016001A00F80B202A0800341C382A013044
:10045000341D2E2ABA020301BB3B312ABA0703011D
:10046000BB3D393085017220390838040319B414B2
:100470002500930122008D11250037308600870169
:1004800001088027A2000108002791072208923D59
:100490003430860081184F2A08300114512A0A305E
:1004A000011093002000341C6B2AB4186B2AB90881
:1004B000031D662A35083702A20038083702031CDC
:1004C000662A37083502031DB7036D2A360837023E
:0E04D000031DB70A6D2A3508B7001111080088
:0204DE000034E8
:0204E0000034E6
:100E0000873182076E3416342E34A9347F34A534EA
:100E10001434C634B134D3342534A13444340A34C0
:100E2000EF34F1340C34A5344334E6348E343A34A0
:100E3000EA349F3457341234D13494345934213441
:100E4000ED34BA348A347834663455344434333427
:100E5000233413340334F334E434D534C734B9348D
:100E6000AB349D34963490348334763469345D34B5
:100E70005134453439342E34233418340D3403348A
:100E8000F934EF34E534DE34D734D034C934C234E5
:100E9000BB34B434AD34A734A1349B3495348F348F
:100EA000893483347D34773471346B3466346134FF
:100EB0005C34573452344D344834433440343D3438
:100EC0003A343734333430342D342A34273424340C
:100ED00021341E341B341834153412340F340C34BE
:100EE0000934063403340034FD34FA34F834F6346B
:100EF000F434F234F034EE34EC34EA34E834E634EA
:100F0000873182072B34273423341F341C3419349F
:100F100017341434123410340F340D340C340B34B1
:100F200009340834083407340734063406340634E8
:100F300005340534053405340434043404340434ED
:100F400003340334033403340334033403340334E9
:100F500003340334033402340234023402340234DE
:100F600002340234023402340234023402340234D1
:100F700002340234023402340234023402340234C1
:100F800001340134013401340134013401340134B9
:100F900001340134013401340134013401340134A9
:100FA0000134013401340134013401340134013499
:100FB0000134013401340134013401340134013489
:100FC0000134013401340134013401340134013479
:100FD0000134013401340134013401340134013469
:100FE000013401340134013400340034003400345D
:100FF0000034003400340034003400340034003451
:020000040001F9
:08000000010000000A000100EC
:02000E00A42F1D
:02001000FF1FD0
:06E00000300014005A007C
:00000001FF
